{
    "_format": "hh-sol-artifact-1",
    "contractName": "Web3RegistrarController",
    "sourceName": "contracts/web3registrar/Web3RegistrarController.sol",
    "abi": [
        {
            "inputs": [
                {
                    "internalType": "contract BaseRegistrarImplementation",
                    "name": "_base",
                    "type": "address"
                },
                {
                    "internalType": "contract IFiatPriceOracle",
                    "name": "_prices",
                    "type": "address"
                },
                {
                    "internalType": "uint256",
                    "name": "_minCommitmentAge",
                    "type": "uint256"
                },
                {
                    "internalType": "uint256",
                    "name": "_maxCommitmentAge",
                    "type": "uint256"
                },
                {
                    "internalType": "contract ReverseRegistrar",
                    "name": "_reverseRegistrar",
                    "type": "address"
                },
                {
                    "internalType": "contract ICNameWrapper",
                    "name": "_nameWrapper",
                    "type": "address"
                }
            ],
            "stateMutability": "nonpayable",
            "type": "constructor"
        },
        {
            "inputs": [],
            "name": "MaxCommitmentAgeTooHigh",
            "type": "error"
        },
        {
            "inputs": [],
            "name": "MaxCommitmentAgeTooLow",
            "type": "error"
        },
        {
            "anonymous": false,
            "inputs": [
                {
                    "indexed": false,
                    "internalType": "uint8",
                    "name": "version",
                    "type": "uint8"
                }
            ],
            "name": "Initialized",
            "type": "event"
        },
        {
            "anonymous": false,
            "inputs": [
                {
                    "indexed": false,
                    "internalType": "string",
                    "name": "name",
                    "type": "string"
                },
                {
                    "indexed": true,
                    "internalType": "bytes32",
                    "name": "label",
                    "type": "bytes32"
                },
                {
                    "indexed": true,
                    "internalType": "address",
                    "name": "owner",
                    "type": "address"
                },
                {
                    "indexed": false,
                    "internalType": "uint256",
                    "name": "baseCost",
                    "type": "uint256"
                },
                {
                    "indexed": false,
                    "internalType": "uint256",
                    "name": "premium",
                    "type": "uint256"
                },
                {
                    "indexed": false,
                    "internalType": "uint256",
                    "name": "expires",
                    "type": "uint256"
                }
            ],
            "name": "NameRegistered",
            "type": "event"
        },
        {
            "anonymous": false,
            "inputs": [
                {
                    "indexed": false,
                    "internalType": "string",
                    "name": "name",
                    "type": "string"
                },
                {
                    "indexed": true,
                    "internalType": "bytes32",
                    "name": "label",
                    "type": "bytes32"
                },
                {
                    "indexed": false,
                    "internalType": "uint256",
                    "name": "cost",
                    "type": "uint256"
                },
                {
                    "indexed": false,
                    "internalType": "uint256",
                    "name": "expires",
                    "type": "uint256"
                }
            ],
            "name": "NameRenewed",
            "type": "event"
        },
        {
            "anonymous": false,
            "inputs": [
                {
                    "indexed": true,
                    "internalType": "address",
                    "name": "previousOwner",
                    "type": "address"
                },
                {
                    "indexed": true,
                    "internalType": "address",
                    "name": "newOwner",
                    "type": "address"
                }
            ],
            "name": "OwnershipTransferred",
            "type": "event"
        },
        {
            "anonymous": false,
            "inputs": [
                {
                    "indexed": true,
                    "internalType": "bytes32",
                    "name": "role",
                    "type": "bytes32"
                },
                {
                    "indexed": true,
                    "internalType": "bytes32",
                    "name": "previousAdminRole",
                    "type": "bytes32"
                },
                {
                    "indexed": true,
                    "internalType": "bytes32",
                    "name": "newAdminRole",
                    "type": "bytes32"
                }
            ],
            "name": "RoleAdminChanged",
            "type": "event"
        },
        {
            "anonymous": false,
            "inputs": [
                {
                    "indexed": true,
                    "internalType": "bytes32",
                    "name": "role",
                    "type": "bytes32"
                },
                {
                    "indexed": true,
                    "internalType": "address",
                    "name": "account",
                    "type": "address"
                },
                {
                    "indexed": true,
                    "internalType": "address",
                    "name": "sender",
                    "type": "address"
                }
            ],
            "name": "RoleGranted",
            "type": "event"
        },
        {
            "anonymous": false,
            "inputs": [
                {
                    "indexed": true,
                    "internalType": "bytes32",
                    "name": "role",
                    "type": "bytes32"
                },
                {
                    "indexed": true,
                    "internalType": "address",
                    "name": "account",
                    "type": "address"
                },
                {
                    "indexed": true,
                    "internalType": "address",
                    "name": "sender",
                    "type": "address"
                }
            ],
            "name": "RoleRevoked",
            "type": "event"
        },
        {
            "inputs": [],
            "name": "ADMIN_ROLE",
            "outputs": [
                {
                    "internalType": "bytes32",
                    "name": "",
                    "type": "bytes32"
                }
            ],
            "stateMutability": "view",
            "type": "function"
        },
        {
            "inputs": [],
            "name": "DEFAULT_ADMIN_ROLE",
            "outputs": [
                {
                    "internalType": "bytes32",
                    "name": "",
                    "type": "bytes32"
                }
            ],
            "stateMutability": "view",
            "type": "function"
        },
        {
            "inputs": [],
            "name": "MIN_REGISTRATION_DURATION",
            "outputs": [
                {
                    "internalType": "uint256",
                    "name": "",
                    "type": "uint256"
                }
            ],
            "stateMutability": "view",
            "type": "function"
        },
        {
            "inputs": [
                {
                    "internalType": "address",
                    "name": "addr",
                    "type": "address"
                }
            ],
            "name": "addAdmin",
            "outputs": [],
            "stateMutability": "nonpayable",
            "type": "function"
        },
        {
            "inputs": [
                {
                    "internalType": "string",
                    "name": "name",
                    "type": "string"
                }
            ],
            "name": "available",
            "outputs": [
                {
                    "internalType": "bool",
                    "name": "",
                    "type": "bool"
                }
            ],
            "stateMutability": "view",
            "type": "function"
        },
        {
            "inputs": [
                {
                    "internalType": "bytes32",
                    "name": "commitment",
                    "type": "bytes32"
                }
            ],
            "name": "commit",
            "outputs": [],
            "stateMutability": "nonpayable",
            "type": "function"
        },
        {
            "inputs": [
                {
                    "internalType": "bytes32",
                    "name": "",
                    "type": "bytes32"
                }
            ],
            "name": "commitments",
            "outputs": [
                {
                    "internalType": "uint256",
                    "name": "",
                    "type": "uint256"
                }
            ],
            "stateMutability": "view",
            "type": "function"
        },
        {
            "inputs": [
                {
                    "internalType": "bytes32",
                    "name": "role",
                    "type": "bytes32"
                }
            ],
            "name": "getRoleAdmin",
            "outputs": [
                {
                    "internalType": "bytes32",
                    "name": "",
                    "type": "bytes32"
                }
            ],
            "stateMutability": "view",
            "type": "function"
        },
        {
            "inputs": [
                {
                    "internalType": "bytes32",
                    "name": "role",
                    "type": "bytes32"
                },
                {
                    "internalType": "address",
                    "name": "account",
                    "type": "address"
                }
            ],
            "name": "grantRole",
            "outputs": [],
            "stateMutability": "nonpayable",
            "type": "function"
        },
        {
            "inputs": [
                {
                    "internalType": "bytes32",
                    "name": "role",
                    "type": "bytes32"
                },
                {
                    "internalType": "address",
                    "name": "account",
                    "type": "address"
                }
            ],
            "name": "hasRole",
            "outputs": [
                {
                    "internalType": "bool",
                    "name": "",
                    "type": "bool"
                }
            ],
            "stateMutability": "view",
            "type": "function"
        },
        {
            "inputs": [
                {
                    "internalType": "contract BaseRegistrarImplementation",
                    "name": "_base",
                    "type": "address"
                },
                {
                    "internalType": "contract IFiatPriceOracle",
                    "name": "_prices",
                    "type": "address"
                },
                {
                    "internalType": "uint256",
                    "name": "_minCommitmentAge",
                    "type": "uint256"
                },
                {
                    "internalType": "uint256",
                    "name": "_maxCommitmentAge",
                    "type": "uint256"
                },
                {
                    "internalType": "contract ReverseRegistrar",
                    "name": "_reverseRegistrar",
                    "type": "address"
                },
                {
                    "internalType": "contract ICNameWrapper",
                    "name": "_nameWrapper",
                    "type": "address"
                },
                {
                    "internalType": "address",
                    "name": "_admin",
                    "type": "address"
                }
            ],
            "name": "initialize",
            "outputs": [],
            "stateMutability": "nonpayable",
            "type": "function"
        },
        {
            "inputs": [
                {
                    "internalType": "string",
                    "name": "_label",
                    "type": "string"
                }
            ],
            "name": "labelStatus",
            "outputs": [
                {
                    "internalType": "enum Web3RegistrarController.LabelStatus",
                    "name": "",
                    "type": "uint8"
                }
            ],
            "stateMutability": "view",
            "type": "function"
        },
        {
            "inputs": [
                {
                    "internalType": "string",
                    "name": "name",
                    "type": "string"
                },
                {
                    "internalType": "address",
                    "name": "owner",
                    "type": "address"
                },
                {
                    "internalType": "uint256",
                    "name": "duration",
                    "type": "uint256"
                },
                {
                    "internalType": "bytes32",
                    "name": "secret",
                    "type": "bytes32"
                },
                {
                    "internalType": "address",
                    "name": "resolver",
                    "type": "address"
                },
                {
                    "internalType": "bytes[]",
                    "name": "data",
                    "type": "bytes[]"
                },
                {
                    "internalType": "bool",
                    "name": "reverseRecord",
                    "type": "bool"
                },
                {
                    "internalType": "uint16",
                    "name": "ownerControlledFuses",
                    "type": "uint16"
                },
                {
                    "internalType": "uint64",
                    "name": "wrapperExpiry",
                    "type": "uint64"
                }
            ],
            "name": "makeCommitment",
            "outputs": [
                {
                    "internalType": "bytes32",
                    "name": "",
                    "type": "bytes32"
                }
            ],
            "stateMutability": "pure",
            "type": "function"
        },
        {
            "inputs": [
                {
                    "internalType": "string",
                    "name": "name",
                    "type": "string"
                },
                {
                    "internalType": "address",
                    "name": "owner",
                    "type": "address"
                },
                {
                    "internalType": "uint256",
                    "name": "duration",
                    "type": "uint256"
                },
                {
                    "internalType": "bytes32",
                    "name": "secret",
                    "type": "bytes32"
                },
                {
                    "internalType": "address",
                    "name": "resolver",
                    "type": "address"
                },
                {
                    "internalType": "bytes[]",
                    "name": "data",
                    "type": "bytes[]"
                },
                {
                    "internalType": "bool",
                    "name": "reverseRecord",
                    "type": "bool"
                },
                {
                    "internalType": "uint16",
                    "name": "ownerControlledFuses",
                    "type": "uint16"
                }
            ],
            "name": "makeCommitment",
            "outputs": [
                {
                    "internalType": "bytes32",
                    "name": "",
                    "type": "bytes32"
                }
            ],
            "stateMutability": "pure",
            "type": "function"
        },
        {
            "inputs": [],
            "name": "maxCommitmentAge",
            "outputs": [
                {
                    "internalType": "uint256",
                    "name": "",
                    "type": "uint256"
                }
            ],
            "stateMutability": "view",
            "type": "function"
        },
        {
            "inputs": [],
            "name": "minCommitmentAge",
            "outputs": [
                {
                    "internalType": "uint256",
                    "name": "",
                    "type": "uint256"
                }
            ],
            "stateMutability": "view",
            "type": "function"
        },
        {
            "inputs": [],
            "name": "nameWhitelist",
            "outputs": [
                {
                    "internalType": "contract INameWhitelist",
                    "name": "",
                    "type": "address"
                }
            ],
            "stateMutability": "view",
            "type": "function"
        },
        {
            "inputs": [],
            "name": "nameWrapper",
            "outputs": [
                {
                    "internalType": "contract ICNameWrapper",
                    "name": "",
                    "type": "address"
                }
            ],
            "stateMutability": "view",
            "type": "function"
        },
        {
            "inputs": [],
            "name": "owner",
            "outputs": [
                {
                    "internalType": "address",
                    "name": "",
                    "type": "address"
                }
            ],
            "stateMutability": "view",
            "type": "function"
        },
        {
            "inputs": [],
            "name": "prices",
            "outputs": [
                {
                    "internalType": "contract IFiatPriceOracle",
                    "name": "",
                    "type": "address"
                }
            ],
            "stateMutability": "view",
            "type": "function"
        },
        {
            "inputs": [
                {
                    "internalType": "address",
                    "name": "_token",
                    "type": "address"
                },
                {
                    "internalType": "address",
                    "name": "_to",
                    "type": "address"
                },
                {
                    "internalType": "uint256",
                    "name": "_amount",
                    "type": "uint256"
                }
            ],
            "name": "recoverFunds",
            "outputs": [],
            "stateMutability": "nonpayable",
            "type": "function"
        },
        {
            "inputs": [
                {
                    "internalType": "string",
                    "name": "name",
                    "type": "string"
                },
                {
                    "internalType": "address",
                    "name": "owner",
                    "type": "address"
                },
                {
                    "internalType": "uint256",
                    "name": "duration",
                    "type": "uint256"
                },
                {
                    "internalType": "bytes32",
                    "name": "secret",
                    "type": "bytes32"
                },
                {
                    "internalType": "address",
                    "name": "resolver",
                    "type": "address"
                },
                {
                    "internalType": "bytes[]",
                    "name": "data",
                    "type": "bytes[]"
                },
                {
                    "internalType": "bool",
                    "name": "reverseRecord",
                    "type": "bool"
                },
                {
                    "internalType": "uint16",
                    "name": "ownerControlledFuses",
                    "type": "uint16"
                },
                {
                    "internalType": "uint64",
                    "name": "wrapperExpiry",
                    "type": "uint64"
                }
            ],
            "name": "register",
            "outputs": [],
            "stateMutability": "payable",
            "type": "function"
        },
        {
            "inputs": [
                {
                    "internalType": "string",
                    "name": "name",
                    "type": "string"
                },
                {
                    "internalType": "address",
                    "name": "owner",
                    "type": "address"
                },
                {
                    "internalType": "uint256",
                    "name": "duration",
                    "type": "uint256"
                },
                {
                    "internalType": "bytes32",
                    "name": "secret",
                    "type": "bytes32"
                },
                {
                    "internalType": "address",
                    "name": "resolver",
                    "type": "address"
                },
                {
                    "internalType": "bytes[]",
                    "name": "data",
                    "type": "bytes[]"
                },
                {
                    "internalType": "bool",
                    "name": "reverseRecord",
                    "type": "bool"
                },
                {
                    "internalType": "uint16",
                    "name": "ownerControlledFuses",
                    "type": "uint16"
                }
            ],
            "name": "register",
            "outputs": [],
            "stateMutability": "payable",
            "type": "function"
        },
        {
            "inputs": [
                {
                    "internalType": "string",
                    "name": "name",
                    "type": "string"
                },
                {
                    "internalType": "address",
                    "name": "owner",
                    "type": "address"
                },
                {
                    "internalType": "uint256",
                    "name": "duration",
                    "type": "uint256"
                },
                {
                    "internalType": "bytes32",
                    "name": "secret",
                    "type": "bytes32"
                },
                {
                    "internalType": "address",
                    "name": "resolver",
                    "type": "address"
                },
                {
                    "internalType": "bytes[]",
                    "name": "data",
                    "type": "bytes[]"
                },
                {
                    "internalType": "bool",
                    "name": "reverseRecord",
                    "type": "bool"
                },
                {
                    "internalType": "uint16",
                    "name": "fuses",
                    "type": "uint16"
                },
                {
                    "internalType": "uint64",
                    "name": "wrapperExpiry",
                    "type": "uint64"
                }
            ],
            "name": "registerWithFiat",
            "outputs": [],
            "stateMutability": "nonpayable",
            "type": "function"
        },
        {
            "inputs": [
                {
                    "internalType": "string",
                    "name": "name",
                    "type": "string"
                },
                {
                    "internalType": "uint256",
                    "name": "duration",
                    "type": "uint256"
                }
            ],
            "name": "renew",
            "outputs": [],
            "stateMutability": "payable",
            "type": "function"
        },
        {
            "inputs": [
                {
                    "internalType": "string",
                    "name": "name",
                    "type": "string"
                },
                {
                    "internalType": "uint256",
                    "name": "duration",
                    "type": "uint256"
                },
                {
                    "internalType": "uint32",
                    "name": "fuses",
                    "type": "uint32"
                },
                {
                    "internalType": "uint64",
                    "name": "wrapperExpiry",
                    "type": "uint64"
                }
            ],
            "name": "renewWithFiat",
            "outputs": [],
            "stateMutability": "nonpayable",
            "type": "function"
        },
        {
            "inputs": [],
            "name": "renounceOwnership",
            "outputs": [],
            "stateMutability": "nonpayable",
            "type": "function"
        },
        {
            "inputs": [
                {
                    "internalType": "bytes32",
                    "name": "role",
                    "type": "bytes32"
                },
                {
                    "internalType": "address",
                    "name": "account",
                    "type": "address"
                }
            ],
            "name": "renounceRole",
            "outputs": [],
            "stateMutability": "nonpayable",
            "type": "function"
        },
        {
            "inputs": [
                {
                    "internalType": "string",
                    "name": "name",
                    "type": "string"
                },
                {
                    "internalType": "uint256",
                    "name": "duration",
                    "type": "uint256"
                }
            ],
            "name": "rentPrice",
            "outputs": [
                {
                    "components": [
                        {
                            "internalType": "uint256",
                            "name": "base",
                            "type": "uint256"
                        },
                        {
                            "internalType": "uint256",
                            "name": "premium",
                            "type": "uint256"
                        }
                    ],
                    "internalType": "struct IPriceOracle.Price",
                    "name": "price",
                    "type": "tuple"
                }
            ],
            "stateMutability": "view",
            "type": "function"
        },
        {
            "inputs": [
                {
                    "internalType": "string",
                    "name": "name",
                    "type": "string"
                },
                {
                    "internalType": "uint256",
                    "name": "duration",
                    "type": "uint256"
                }
            ],
            "name": "rentPriceInFiat",
            "outputs": [
                {
                    "components": [
                        {
                            "internalType": "uint256",
                            "name": "base",
                            "type": "uint256"
                        },
                        {
                            "internalType": "uint256",
                            "name": "premium",
                            "type": "uint256"
                        }
                    ],
                    "internalType": "struct IPriceOracle.Price",
                    "name": "price",
                    "type": "tuple"
                }
            ],
            "stateMutability": "view",
            "type": "function"
        },
        {
            "inputs": [],
            "name": "reverseRegistrar",
            "outputs": [
                {
                    "internalType": "contract ReverseRegistrar",
                    "name": "",
                    "type": "address"
                }
            ],
            "stateMutability": "view",
            "type": "function"
        },
        {
            "inputs": [
                {
                    "internalType": "bytes32",
                    "name": "role",
                    "type": "bytes32"
                },
                {
                    "internalType": "address",
                    "name": "account",
                    "type": "address"
                }
            ],
            "name": "revokeRole",
            "outputs": [],
            "stateMutability": "nonpayable",
            "type": "function"
        },
        {
            "inputs": [
                {
                    "internalType": "uint256",
                    "name": "_minCommitmentAge",
                    "type": "uint256"
                },
                {
                    "internalType": "uint256",
                    "name": "_maxCommitmentAge",
                    "type": "uint256"
                }
            ],
            "name": "setCommitmentAge",
            "outputs": [],
            "stateMutability": "nonpayable",
            "type": "function"
        },
        {
            "inputs": [
                {
                    "internalType": "uint256",
                    "name": "_quota",
                    "type": "uint256"
                }
            ],
            "name": "setLabel45Quota",
            "outputs": [],
            "stateMutability": "nonpayable",
            "type": "function"
        },
        {
            "inputs": [
                {
                    "internalType": "contract INameWhitelist",
                    "name": "_nameWhitelist",
                    "type": "address"
                }
            ],
            "name": "setNameWhitelist",
            "outputs": [],
            "stateMutability": "nonpayable",
            "type": "function"
        },
        {
            "inputs": [
                {
                    "internalType": "contract IFiatPriceOracle",
                    "name": "_prices",
                    "type": "address"
                }
            ],
            "name": "setPriceOracle",
            "outputs": [],
            "stateMutability": "nonpayable",
            "type": "function"
        },
        {
            "inputs": [
                {
                    "internalType": "uint256",
                    "name": "_len",
                    "type": "uint256"
                }
            ],
            "name": "setValidLen",
            "outputs": [],
            "stateMutability": "nonpayable",
            "type": "function"
        },
        {
            "inputs": [
                {
                    "internalType": "bytes4",
                    "name": "interfaceID",
                    "type": "bytes4"
                }
            ],
            "name": "supportsInterface",
            "outputs": [
                {
                    "internalType": "bool",
                    "name": "",
                    "type": "bool"
                }
            ],
            "stateMutability": "pure",
            "type": "function"
        },
        {
            "inputs": [
                {
                    "internalType": "address",
                    "name": "newOwner",
                    "type": "address"
                }
            ],
            "name": "transferOwnership",
            "outputs": [],
            "stateMutability": "nonpayable",
            "type": "function"
        },
        {
            "inputs": [
                {
                    "internalType": "string",
                    "name": "name",
                    "type": "string"
                }
            ],
            "name": "valid",
            "outputs": [
                {
                    "internalType": "bool",
                    "name": "",
                    "type": "bool"
                }
            ],
            "stateMutability": "view",
            "type": "function"
        },
        {
            "inputs": [],
            "name": "withdraw",
            "outputs": [],
            "stateMutability": "nonpayable",
            "type": "function"
        }
    ],
    "bytecode": "0x60806040526004600a5561c350600b553480156200001c57600080fd5b506040516200586738038062005867833981810160405281019062000042919062000630565b6200006262000056620000cb60201b60201c565b620000d360201b60201c565b620000947fa49807205ce4d355092ef5a8a18f56e8913cf4a201fbe287825b095693c21775336200019760201b60201c565b620000a96000801b33620001ad60201b60201c565b620000bf8686868686866200029e60201b60201c565b505050505050620006cc565b600033905090565b60008060009054906101000a900473ffffffffffffffffffffffffffffffffffffffff169050816000806101000a81548173ffffffffffffffffffffffffffffffffffffffff021916908373ffffffffffffffffffffffffffffffffffffffff1602179055508173ffffffffffffffffffffffffffffffffffffffff168173ffffffffffffffffffffffffffffffffffffffff167f8be0079c531659141344cd1fd0a4f28419497f9722a3daafe3b4186f6b6457e060405160405180910390a35050565b620001a98282620001ad60201b60201c565b5050565b620001bf82826200043d60201b60201c565b6200029a57600180600084815260200190815260200160002060000160008373ffffffffffffffffffffffffffffffffffffffff1673ffffffffffffffffffffffffffffffffffffffff16815260200190815260200160002060006101000a81548160ff0219169083151502179055506200023f620000cb60201b60201c565b73ffffffffffffffffffffffffffffffffffffffff168173ffffffffffffffffffffffffffffffffffffffff16837f2f8788117e7eff1d82e926ec794901d17c78024a50270940304540a733656f0d60405160405180910390a45b5050565b838311620002d8576040517f3e5aa83800000000000000000000000000000000000000000000000000000000815260040160405180910390fd5b4283111562000313576040517f2d0c679400000000000000000000000000000000000000000000000000000000815260040160405180910390fd5b856002806101000a81548173ffffffffffffffffffffffffffffffffffffffff021916908373ffffffffffffffffffffffffffffffffffffffff16021790555084600360006101000a81548173ffffffffffffffffffffffffffffffffffffffff021916908373ffffffffffffffffffffffffffffffffffffffff160217905550836004819055508260058190555081600660006101000a81548173ffffffffffffffffffffffffffffffffffffffff021916908373ffffffffffffffffffffffffffffffffffffffff16021790555080600760006101000a81548173ffffffffffffffffffffffffffffffffffffffff021916908373ffffffffffffffffffffffffffffffffffffffff1602179055506004600a8190555061c350600b81905550505050505050565b60006001600084815260200190815260200160002060000160008373ffffffffffffffffffffffffffffffffffffffff1673ffffffffffffffffffffffffffffffffffffffff16815260200190815260200160002060009054906101000a900460ff16905092915050565b600080fd5b600073ffffffffffffffffffffffffffffffffffffffff82169050919050565b6000620004da82620004ad565b9050919050565b6000620004ee82620004cd565b9050919050565b6200050081620004e1565b81146200050c57600080fd5b50565b6000815190506200052081620004f5565b92915050565b60006200053382620004cd565b9050919050565b620005458162000526565b81146200055157600080fd5b50565b60008151905062000565816200053a565b92915050565b6000819050919050565b62000580816200056b565b81146200058c57600080fd5b50565b600081519050620005a08162000575565b92915050565b6000620005b382620004cd565b9050919050565b620005c581620005a6565b8114620005d157600080fd5b50565b600081519050620005e581620005ba565b92915050565b6000620005f882620004cd565b9050919050565b6200060a81620005eb565b81146200061657600080fd5b50565b6000815190506200062a81620005ff565b92915050565b60008060008060008060c0878903121562000650576200064f620004a8565b5b60006200066089828a016200050f565b96505060206200067389828a0162000554565b95505060406200068689828a016200058f565b94505060606200069989828a016200058f565b9350506080620006ac89828a01620005d4565b92505060a0620006bf89828a0162000619565b9150509295509295509295565b61518b80620006dc6000396000f3fe6080604052600436106102465760003560e01c806383e7f6ff11610139578063a97bf04b116100b6578063d3419bf31161007a578063d3419bf314610889578063d547741f146108b4578063e221496f146108dd578063e4214b4614610906578063f14fcbc81461092f578063f2fde38b1461095857610246565b8063a97bf04b1461079f578063acf1a841146107c8578063aeb8ce9b146107e4578063b2f100f014610821578063ce1e09c01461085e57610246565b80639791c097116100fd5780639791c097146106a65780639da4f2e1146106e3578063a217fddf14610720578063a72e1cb21461074b578063a8e5fbc01461077457610246565b806383e7f6ff146105ab5780638a95b09f146105e85780638d839ffe146106135780638da5cb5b1461063e57806391d148541461066957610246565b8063530e784f116101c7578063715018a61161018b578063715018a6146104e557806374694a2b146104fc57806375b238fc146105185780638086985314610543578063839df9451461056e57610246565b8063530e784f146104045780635d3590d51461042d578063602ece211461045657806365a69dcf1461047f57806370480275146104bc57610246565b80632f2ff15d1161020e5780632f2ff15d1461035657806336568abe1461037f5780633ccfd60b146103a85780633e785737146103bf5780634e73c666146103e857610246565b806301ffc9a71461024b5780631e803098146102885780631ea61fc4146102b35780631f6e854a146102dc578063248a9ca314610319575b600080fd5b34801561025757600080fd5b50610272600480360381019061026d9190612f2a565b610981565b60405161027f9190612f72565b60405180910390f35b34801561029457600080fd5b5061029d610a53565b6040516102aa919061300c565b60405180910390f35b3480156102bf57600080fd5b506102da60048036038101906102d5919061313e565b610a79565b005b3480156102e857600080fd5b5061030360048036038101906102fe9190613437565b610bb5565b604051610310919061354d565b60405180910390f35b34801561032557600080fd5b50610340600480360381019061033b9190613568565b610bd8565b60405161034d919061354d565b60405180910390f35b34801561036257600080fd5b5061037d60048036038101906103789190613595565b610bf8565b005b34801561038b57600080fd5b506103a660048036038101906103a19190613595565b610c19565b005b3480156103b457600080fd5b506103bd610c9c565b005b3480156103cb57600080fd5b506103e660048036038101906103e191906136cd565b610cec565b005b61040260048036038101906103fd919061376f565b610e75565b005b34801561041057600080fd5b5061042b6004803603810190610426919061387b565b610e94565b005b34801561043957600080fd5b50610454600480360381019061044f91906138a8565b610f03565b005b34801561046257600080fd5b5061047d600480360381019061047891906138fb565b610f8f565b005b34801561048b57600080fd5b506104a660048036038101906104a19190613928565b611007565b6040516104b3919061354d565b60405180910390f35b3480156104c857600080fd5b506104e360048036038101906104de9190613a1a565b61112e565b005b3480156104f157600080fd5b506104fa611186565b005b61051660048036038101906105119190613a47565b61119a565b005b34801561052457600080fd5b5061052d6112ea565b60405161053a919061354d565b60405180910390f35b34801561054f57600080fd5b5061055861130e565b6040516105659190613b5f565b60405180910390f35b34801561057a57600080fd5b5061059560048036038101906105909190613568565b611334565b6040516105a29190613b89565b60405180910390f35b3480156105b757600080fd5b506105d260048036038101906105cd9190613ba4565b61134c565b6040516105df9190613c3e565b60405180910390f35b3480156105f457600080fd5b506105fd6114a4565b60405161060a9190613b89565b60405180910390f35b34801561061f57600080fd5b506106286114ab565b6040516106359190613b89565b60405180910390f35b34801561064a57600080fd5b506106536114b1565b6040516106609190613c68565b60405180910390f35b34801561067557600080fd5b50610690600480360381019061068b9190613595565b6114da565b60405161069d9190612f72565b60405180910390f35b3480156106b257600080fd5b506106cd60048036038101906106c89190613c83565b611545565b6040516106da9190612f72565b60405180910390f35b3480156106ef57600080fd5b5061070a60048036038101906107059190613ba4565b61155c565b6040516107179190613c3e565b60405180910390f35b34801561072c57600080fd5b506107356116b4565b604051610742919061354d565b60405180910390f35b34801561075757600080fd5b50610772600480360381019061076d919061376f565b6116bb565b005b34801561078057600080fd5b50610789611706565b6040516107969190613ced565b60405180910390f35b3480156107ab57600080fd5b506107c660048036038101906107c191906138fb565b61172c565b005b6107e260048036038101906107dd9190613d08565b6117a5565b005b3480156107f057600080fd5b5061080b60048036038101906108069190613c83565b6119b7565b6040516108189190612f72565b60405180910390f35b34801561082d57600080fd5b5061084860048036038101906108439190613c83565b611a7a565b6040516108559190613ddf565b60405180910390f35b34801561086a57600080fd5b50610873611cd0565b6040516108809190613b89565b60405180910390f35b34801561089557600080fd5b5061089e611cd6565b6040516108ab9190613e1b565b60405180910390f35b3480156108c057600080fd5b506108db60048036038101906108d69190613595565b611cfc565b005b3480156108e957600080fd5b5061090460048036038101906108ff9190613e74565b611d1d565b005b34801561091257600080fd5b5061092d60048036038101906109289190613ea1565b611d8c565b005b34801561093b57600080fd5b5061095660048036038101906109519190613568565b611e3c565b005b34801561096457600080fd5b5061097f600480360381019061097a9190613a1a565b611ec0565b005b60007f01ffc9a7000000000000000000000000000000000000000000000000000000007bffffffffffffffffffffffffffffffffffffffffffffffffffffffff1916827bffffffffffffffffffffffffffffffffffffffffffffffffffffffff19161480610a4c57507f612e8c09000000000000000000000000000000000000000000000000000000007bffffffffffffffffffffffffffffffffffffffffffffffffffffffff1916827bffffffffffffffffffffffffffffffffffffffffffffffffffffffff1916145b9050919050565b600960009054906101000a900473ffffffffffffffffffffffffffffffffffffffff1681565b7fa49807205ce4d355092ef5a8a18f56e8913cf4a201fbe287825b095693c21775610aa381611f43565b60008686604051610ab5929190613f11565b6040518091039020905060008160001c90506000600760009054906101000a900473ffffffffffffffffffffffffffffffffffffffff1673ffffffffffffffffffffffffffffffffffffffff1663c475abff83896040518363ffffffff1660e01b8152600401610b26929190613f2a565b6020604051808303816000875af1158015610b45573d6000803e3d6000fd5b505050506040513d601f19601f82011682018060405250810190610b699190613f68565b9050827f3da24c024582931cfaf8267d8ed24d13a82a8068d5bd337d30ec45cea4e506ae8a8a600085604051610ba2949392919061400e565b60405180910390a2505050505050505050565b6000610bc88b8b8b8b8b8b8b8b8b611007565b90509a9950505050505050505050565b600060016000838152602001908152602001600020600101549050919050565b610c0182610bd8565b610c0a81611f43565b610c148383611f57565b505050565b610c21612037565b73ffffffffffffffffffffffffffffffffffffffff168173ffffffffffffffffffffffffffffffffffffffff1614610c8e576040517f08c379a0000000000000000000000000000000000000000000000000000000008152600401610c85906140c0565b60405180910390fd5b610c98828261203f565b5050565b610ca46114b1565b73ffffffffffffffffffffffffffffffffffffffff166108fc479081150290604051600060405180830381858888f19350505050158015610ce9573d6000803e3d6000fd5b50565b6000600260019054906101000a900460ff16159050808015610d2057506001600260009054906101000a900460ff1660ff16105b80610d4f5750610d2f30612121565b158015610d4e57506001600260009054906101000a900460ff1660ff16145b5b610d8e576040517f08c379a0000000000000000000000000000000000000000000000000000000008152600401610d8590614152565b60405180910390fd5b6001600260006101000a81548160ff021916908360ff1602179055508015610dcc576001600260016101000a81548160ff0219169083151502179055505b610df67fa49807205ce4d355092ef5a8a18f56e8913cf4a201fbe287825b095693c2177583612144565b610e036000801b33611f57565b610e11888888888888612152565b8015610e6b576000600260016101000a81548160ff0219169083151502179055507f7f26b83ff96e1f2b6a682f133852f6798a09c465da95921460cefb38474024986001604051610e6291906141ba565b60405180910390a15b5050505050505050565b610e878b8b8b8b8b8b8b8b8b8b61119a565b5050505050505050505050565b7fa49807205ce4d355092ef5a8a18f56e8913cf4a201fbe287825b095693c21775610ebe81611f43565b81600360006101000a81548173ffffffffffffffffffffffffffffffffffffffff021916908373ffffffffffffffffffffffffffffffffffffffff1602179055505050565b610f0b6122ef565b8273ffffffffffffffffffffffffffffffffffffffff1663a9059cbb83836040518363ffffffff1660e01b8152600401610f469291906141d5565b6020604051808303816000875af1158015610f65573d6000803e3d6000fd5b505050506040513d601f19601f82011682018060405250810190610f899190614213565b50505050565b7fa49807205ce4d355092ef5a8a18f56e8913cf4a201fbe287825b095693c21775610fb981611f43565b60018211610ffc576040517f08c379a0000000000000000000000000000000000000000000000000000000008152600401610ff39061428c565b60405180910390fd5b81600a819055505050565b6000808a8051906020012090506000868690501180156110535750600073ffffffffffffffffffffffffffffffffffffffff168773ffffffffffffffffffffffffffffffffffffffff16145b1561109a576000611099576040517f08c379a0000000000000000000000000000000000000000000000000000000008152600401611090906142f8565b60405180910390fd5b5b6224ea008910156110e75760006110e6576040517f08c379a00000000000000000000000000000000000000000000000000000000081526004016110dd90614364565b60405180910390fd5b5b808a8a8a8a8a8a8a8a604051602001611108999897969594939291906144f7565b604051602081830303815290604052805190602001209150509998505050505050505050565b7fa49807205ce4d355092ef5a8a18f56e8913cf4a201fbe287825b095693c2177561115881611f43565b6111827fa49807205ce4d355092ef5a8a18f56e8913cf4a201fbe287825b095693c2177583612144565b5050565b61118e6122ef565b611198600061236d565b565b60006111ea8b8b8080601f016020809104026020016040519081016040528093929190818152602001838380828437600081840152601f19601f820116905080830192505050505050508961134c565b90508060200151816000015161120091906145ad565b341015611249576000611248576040517f08c379a000000000000000000000000000000000000000000000000000000000815260040161123f9061462d565b60405180910390fd5b5b61125b8b8b8b8b8b8b8b8b8b8b612431565b508060200151816000015161127091906145ad565b3411156112dd573373ffffffffffffffffffffffffffffffffffffffff166108fc826020015183600001516112a591906145ad565b346112b0919061464d565b9081150290604051600060405180830381858888f193505050501580156112db573d6000803e3d6000fd5b505b5050505050505050505050565b7fa49807205ce4d355092ef5a8a18f56e8913cf4a201fbe287825b095693c2177581565b600660009054906101000a900473ffffffffffffffffffffffffffffffffffffffff1681565b60086020528060005260406000206000915090505481565b611354612ea4565b600083805190602001209050600360009054906101000a900473ffffffffffffffffffffffffffffffffffffffff1673ffffffffffffffffffffffffffffffffffffffff166350e9a7158560028054906101000a900473ffffffffffffffffffffffffffffffffffffffff1673ffffffffffffffffffffffffffffffffffffffff1663d6e4fa868560001c6040518263ffffffff1660e01b81526004016113fb9190613b89565b602060405180830381865afa158015611418573d6000803e3d6000fd5b505050506040513d601f19601f8201168201806040525081019061143c9190613f68565b866040518463ffffffff1660e01b815260040161145b939291906146ef565b6040805180830381865afa158015611477573d6000803e3d6000fd5b505050506040513d601f19601f8201168201806040525081019061149b9190614782565b91505092915050565b6224ea0081565b60045481565b60008060009054906101000a900473ffffffffffffffffffffffffffffffffffffffff16905090565b60006001600084815260200190815260200160002060000160008373ffffffffffffffffffffffffffffffffffffffff1673ffffffffffffffffffffffffffffffffffffffff16815260200190815260200160002060009054906101000a900460ff16905092915050565b6000600a54611553836126df565b10159050919050565b611564612ea4565b600083805190602001209050600360009054906101000a900473ffffffffffffffffffffffffffffffffffffffff1673ffffffffffffffffffffffffffffffffffffffff166347dd3cf18560028054906101000a900473ffffffffffffffffffffffffffffffffffffffff1673ffffffffffffffffffffffffffffffffffffffff1663d6e4fa868560001c6040518263ffffffff1660e01b815260040161160b9190613b89565b602060405180830381865afa158015611628573d6000803e3d6000fd5b505050506040513d601f19601f8201168201806040525081019061164c9190613f68565b866040518463ffffffff1660e01b815260040161166b939291906146ef565b6040805180830381865afa158015611687573d6000803e3d6000fd5b505050506040513d601f19601f820116820180604052508101906116ab9190614782565b91505092915050565b6000801b81565b7fa49807205ce4d355092ef5a8a18f56e8913cf4a201fbe287825b095693c217756116e581611f43565b6116f78c8c8c8c8c8c8c8c8c8c612431565b50505050505050505050505050565b600760009054906101000a900473ffffffffffffffffffffffffffffffffffffffff1681565b7fa49807205ce4d355092ef5a8a18f56e8913cf4a201fbe287825b095693c2177561175681611f43565b600b54821161179a576040517f08c379a0000000000000000000000000000000000000000000000000000000008152600401611791906147fb565b60405180910390fd5b81600b819055505050565b600083836040516117b7929190613f11565b6040518091039020905060008160001c9050600061181986868080601f016020809104026020016040519081016040528093929190818152602001838380828437600081840152601f19601f820116905080830192505050505050508561134c565b90508060000151341015611869576000611868576040517f08c379a000000000000000000000000000000000000000000000000000000000815260040161185f9061462d565b60405180910390fd5b5b6000600760009054906101000a900473ffffffffffffffffffffffffffffffffffffffff1673ffffffffffffffffffffffffffffffffffffffff1663c475abff84876040518363ffffffff1660e01b81526004016118c8929190613f2a565b6020604051808303816000875af11580156118e7573d6000803e3d6000fd5b505050506040513d601f19601f8201168201806040525081019061190b9190613f68565b90508160000151341115611970573373ffffffffffffffffffffffffffffffffffffffff166108fc836000015134611943919061464d565b9081150290604051600060405180830381858888f1935050505015801561196e573d6000803e3d6000fd5b505b837f3da24c024582931cfaf8267d8ed24d13a82a8068d5bd337d30ec45cea4e506ae888834856040516119a6949392919061481b565b60405180910390a250505050505050565b600080828051906020012090506119cd83611545565b8015611a72575060028054906101000a900473ffffffffffffffffffffffffffffffffffffffff1673ffffffffffffffffffffffffffffffffffffffff166396e494e88260001c6040518263ffffffff1660e01b8152600401611a309190613b89565b602060405180830381865afa158015611a4d573d6000803e3d6000fd5b505050506040513d601f19601f82011682018060405250810190611a719190614213565b5b915050919050565b6000611a8582611545565b611a925760019050611ccb565b600960009054906101000a900473ffffffffffffffffffffffffffffffffffffffff1673ffffffffffffffffffffffffffffffffffffffff16633ec05629836040518263ffffffff1660e01b8152600401611aed919061485b565b602060405180830381865afa158015611b0a573d6000803e3d6000fd5b505050506040513d601f19601f82011682018060405250810190611b2e9190614213565b611b3b5760039050611ccb565b600960009054906101000a900473ffffffffffffffffffffffffffffffffffffffff1673ffffffffffffffffffffffffffffffffffffffff16633361c49e836040518263ffffffff1660e01b8152600401611b96919061485b565b602060405180830381865afa158015611bb3573d6000803e3d6000fd5b505050506040513d601f19601f82011682018060405250810190611bd79190614213565b15611be55760029050611ccb565b611bee826119b7565b611bfb5760059050611ccb565b6004611c06836126df565b1480611c1a57506005611c18836126df565b145b8015611cb85750600b54600760009054906101000a900473ffffffffffffffffffffffffffffffffffffffff1673ffffffffffffffffffffffffffffffffffffffff16631764b0236040518163ffffffff1660e01b8152600401602060405180830381865afa158015611c91573d6000803e3d6000fd5b505050506040513d601f19601f82011682018060405250810190611cb59190613f68565b10155b15611cc65760069050611ccb565b600090505b919050565b60055481565b600360009054906101000a900473ffffffffffffffffffffffffffffffffffffffff1681565b611d0582610bd8565b611d0e81611f43565b611d18838361203f565b505050565b7fa49807205ce4d355092ef5a8a18f56e8913cf4a201fbe287825b095693c21775611d4781611f43565b81600960006101000a81548173ffffffffffffffffffffffffffffffffffffffff021916908373ffffffffffffffffffffffffffffffffffffffff1602179055505050565b7fa49807205ce4d355092ef5a8a18f56e8913cf4a201fbe287825b095693c21775611db681611f43565b828211611def576040517f3e5aa83800000000000000000000000000000000000000000000000000000000815260040160405180910390fd5b42821115611e29576040517f2d0c679400000000000000000000000000000000000000000000000000000000815260040160405180910390fd5b8260048190555081600581905550505050565b426005546008600084815260200190815260200160002054611e5e91906145ad565b10611ea5576000611ea4576040517f08c379a0000000000000000000000000000000000000000000000000000000008152600401611e9b906148c9565b60405180910390fd5b5b42600860008381526020019081526020016000208190555050565b611ec86122ef565b600073ffffffffffffffffffffffffffffffffffffffff168173ffffffffffffffffffffffffffffffffffffffff1603611f37576040517f08c379a0000000000000000000000000000000000000000000000000000000008152600401611f2e9061495b565b60405180910390fd5b611f408161236d565b50565b611f5481611f4f612037565b612894565b50565b611f6182826114da565b61203357600180600084815260200190815260200160002060000160008373ffffffffffffffffffffffffffffffffffffffff1673ffffffffffffffffffffffffffffffffffffffff16815260200190815260200160002060006101000a81548160ff021916908315150217905550611fd8612037565b73ffffffffffffffffffffffffffffffffffffffff168173ffffffffffffffffffffffffffffffffffffffff16837f2f8788117e7eff1d82e926ec794901d17c78024a50270940304540a733656f0d60405160405180910390a45b5050565b600033905090565b61204982826114da565b1561211d5760006001600084815260200190815260200160002060000160008373ffffffffffffffffffffffffffffffffffffffff1673ffffffffffffffffffffffffffffffffffffffff16815260200190815260200160002060006101000a81548160ff0219169083151502179055506120c2612037565b73ffffffffffffffffffffffffffffffffffffffff168173ffffffffffffffffffffffffffffffffffffffff16837ff6391f5c32d9c69d2a47ea670b442974b53935d1edc7fd64eb21e047a839171b60405160405180910390a45b5050565b6000808273ffffffffffffffffffffffffffffffffffffffff163b119050919050565b61214e8282611f57565b5050565b83831161218b576040517f3e5aa83800000000000000000000000000000000000000000000000000000000815260040160405180910390fd5b428311156121c5576040517f2d0c679400000000000000000000000000000000000000000000000000000000815260040160405180910390fd5b856002806101000a81548173ffffffffffffffffffffffffffffffffffffffff021916908373ffffffffffffffffffffffffffffffffffffffff16021790555084600360006101000a81548173ffffffffffffffffffffffffffffffffffffffff021916908373ffffffffffffffffffffffffffffffffffffffff160217905550836004819055508260058190555081600660006101000a81548173ffffffffffffffffffffffffffffffffffffffff021916908373ffffffffffffffffffffffffffffffffffffffff16021790555080600760006101000a81548173ffffffffffffffffffffffffffffffffffffffff021916908373ffffffffffffffffffffffffffffffffffffffff1602179055506004600a8190555061c350600b81905550505050505050565b6122f7612037565b73ffffffffffffffffffffffffffffffffffffffff166123156114b1565b73ffffffffffffffffffffffffffffffffffffffff161461236b576040517f08c379a0000000000000000000000000000000000000000000000000000000008152600401612362906149c7565b60405180910390fd5b565b60008060009054906101000a900473ffffffffffffffffffffffffffffffffffffffff169050816000806101000a81548173ffffffffffffffffffffffffffffffffffffffff021916908373ffffffffffffffffffffffffffffffffffffffff1602179055508173ffffffffffffffffffffffffffffffffffffffff168173ffffffffffffffffffffffffffffffffffffffff167f8be0079c531659141344cd1fd0a4f28419497f9722a3daafe3b4186f6b6457e060405160405180910390a35050565b6000806124828c8c8080601f016020809104026020016040519081016040528093929190818152602001838380828437600081840152601f19601f820116905080830192505050505050508a61134c565b90506125278c8c8080601f016020809104026020016040519081016040528093929190818152602001838380828437600081840152601f19601f820116905080830192505050505050508a6125228f8f8080601f016020809104026020016040519081016040528093929190818152602001838380828437600081840152601f19601f820116905080830192505050505050508e8e8e8e8e8e8e8e611007565b612931565b6000600760009054906101000a900473ffffffffffffffffffffffffffffffffffffffff1673ffffffffffffffffffffffffffffffffffffffff1663a40149828e8e8e8e8d8a6040518763ffffffff1660e01b815260040161258e969594939291906149e7565b6020604051808303816000875af11580156125ad573d6000803e3d6000fd5b505050506040513d601f19601f820116820180604052508101906125d19190613f68565b9050600087879050111561260357612602888e8e6040516125f3929190613f11565b60405180910390208989612abc565b5b8415612659576126588d8d8080601f016020809104026020016040519081016040528093929190818152602001838380828437600081840152601f19601f820116905080830192505050505050508933612b9f565b5b8a73ffffffffffffffffffffffffffffffffffffffff168d8d604051612680929190613f11565b60405180910390207f69e37f151eb98a09618ddaa80c8cfaf1ce5996867c489f45b555b412271ebf278f8f86600001518760200151876040516126c7959493929190614a43565b60405180910390a350509a9950505050505050505050565b60008060008084519050600092505b8082101561288957600085838151811061270b5761270a614a91565b5b602001015160f81c60f81b9050608060f81b817effffffffffffffffffffffffffffffffffffffffffffffffffffffffffffff1916101561275a5760018361275391906145ad565b9250612875565b60e060f81b817effffffffffffffffffffffffffffffffffffffffffffffffffffffffffffff1916101561279c5760028361279591906145ad565b9250612874565b60f060f81b817effffffffffffffffffffffffffffffffffffffffffffffffffffffffffffff191610156127de576003836127d791906145ad565b9250612873565b60f8801b817effffffffffffffffffffffffffffffffffffffffffffffffffffffffffffff1916101561281f5760048361281891906145ad565b9250612872565b60fc60f81b817effffffffffffffffffffffffffffffffffffffffffffffffffffffffffffff191610156128615760058361285a91906145ad565b9250612871565b60068361286e91906145ad565b92505b5b5b5b5b50828061288190614ac0565b9350506126ee565b829350505050919050565b61289e82826114da565b61292d576128c38173ffffffffffffffffffffffffffffffffffffffff166014612c68565b6128d18360001c6020612c68565b6040516020016128e2929190614bdc565b6040516020818303038152906040526040517f08c379a0000000000000000000000000000000000000000000000000000000008152600401612924919061485b565b60405180910390fd5b5050565b42600454600860008481526020019081526020016000205461295391906145ad565b111561299b57600061299a576040517f08c379a000000000000000000000000000000000000000000000000000000000815260040161299190614c62565b60405180910390fd5b5b4260055460086000848152602001908152602001600020546129bd91906145ad565b11612a04576000612a03576040517f08c379a00000000000000000000000000000000000000000000000000000000081526004016129fa90614cce565b60405180910390fd5b5b612a0d836119b7565b612a53576000612a52576040517f08c379a0000000000000000000000000000000000000000000000000000000008152600401612a4990614d3a565b60405180910390fd5b5b60086000828152602001908152602001600020600090556224ea00821015612ab7576000612ab6576040517f08c379a0000000000000000000000000000000000000000000000000000000008152600401612aad90614364565b60405180910390fd5b5b505050565b60007f587d09fe5fa45354680537d38145a28b772971e0f293af3ee0c536fc919710fb60001b84604051602001612af4929190614d7b565b60405160208183030381529060405280519060200120905060008590508073ffffffffffffffffffffffffffffffffffffffff1663e32954eb8386866040518463ffffffff1660e01b8152600401612b4e93929190614da7565b6000604051808303816000875af1158015612b6d573d6000803e3d6000fd5b505050506040513d6000823e3d601f19601f82011682018060405250810190612b969190614f5b565b50505050505050565b600660009054906101000a900473ffffffffffffffffffffffffffffffffffffffff1673ffffffffffffffffffffffffffffffffffffffff16637a806d6b33838587604051602001612bf19190614fca565b6040516020818303038152906040526040518563ffffffff1660e01b8152600401612c1f9493929190614ff0565b6020604051808303816000875af1158015612c3e573d6000803e3d6000fd5b505050506040513d601f19601f82011682018060405250810190612c629190615051565b50505050565b606060006002836002612c7b919061507e565b612c8591906145ad565b67ffffffffffffffff811115612c9e57612c9d6131dc565b5b6040519080825280601f01601f191660200182016040528015612cd05781602001600182028036833780820191505090505b5090507f300000000000000000000000000000000000000000000000000000000000000081600081518110612d0857612d07614a91565b5b60200101907effffffffffffffffffffffffffffffffffffffffffffffffffffffffffffff1916908160001a9053507f780000000000000000000000000000000000000000000000000000000000000081600181518110612d6c57612d6b614a91565b5b60200101907effffffffffffffffffffffffffffffffffffffffffffffffffffffffffffff1916908160001a90535060006001846002612dac919061507e565b612db691906145ad565b90505b6001811115612e56577f3031323334353637383961626364656600000000000000000000000000000000600f861660108110612df857612df7614a91565b5b1a60f81b828281518110612e0f57612e0e614a91565b5b60200101907effffffffffffffffffffffffffffffffffffffffffffffffffffffffffffff1916908160001a905350600485901c945080612e4f906150c0565b9050612db9565b5060008414612e9a576040517f08c379a0000000000000000000000000000000000000000000000000000000008152600401612e9190615135565b60405180910390fd5b8091505092915050565b604051806040016040528060008152602001600081525090565b6000604051905090565b600080fd5b600080fd5b60007fffffffff0000000000000000000000000000000000000000000000000000000082169050919050565b612f0781612ed2565b8114612f1257600080fd5b50565b600081359050612f2481612efe565b92915050565b600060208284031215612f4057612f3f612ec8565b5b6000612f4e84828501612f15565b91505092915050565b60008115159050919050565b612f6c81612f57565b82525050565b6000602082019050612f876000830184612f63565b92915050565b600073ffffffffffffffffffffffffffffffffffffffff82169050919050565b6000819050919050565b6000612fd2612fcd612fc884612f8d565b612fad565b612f8d565b9050919050565b6000612fe482612fb7565b9050919050565b6000612ff682612fd9565b9050919050565b61300681612feb565b82525050565b60006020820190506130216000830184612ffd565b92915050565b600080fd5b600080fd5b600080fd5b60008083601f84011261304c5761304b613027565b5b8235905067ffffffffffffffff8111156130695761306861302c565b5b60208301915083600182028301111561308557613084613031565b5b9250929050565b6000819050919050565b61309f8161308c565b81146130aa57600080fd5b50565b6000813590506130bc81613096565b92915050565b600063ffffffff82169050919050565b6130db816130c2565b81146130e657600080fd5b50565b6000813590506130f8816130d2565b92915050565b600067ffffffffffffffff82169050919050565b61311b816130fe565b811461312657600080fd5b50565b60008135905061313881613112565b92915050565b60008060008060006080868803121561315a57613159612ec8565b5b600086013567ffffffffffffffff81111561317857613177612ecd565b5b61318488828901613036565b95509550506020613197888289016130ad565b93505060406131a8888289016130e9565b92505060606131b988828901613129565b9150509295509295909350565b600080fd5b6000601f19601f8301169050919050565b7f4e487b7100000000000000000000000000000000000000000000000000000000600052604160045260246000fd5b613214826131cb565b810181811067ffffffffffffffff82111715613233576132326131dc565b5b80604052505050565b6000613246612ebe565b9050613252828261320b565b919050565b600067ffffffffffffffff821115613272576132716131dc565b5b61327b826131cb565b9050602081019050919050565b82818337600083830152505050565b60006132aa6132a584613257565b61323c565b9050828152602081018484840111156132c6576132c56131c6565b5b6132d1848285613288565b509392505050565b600082601f8301126132ee576132ed613027565b5b81356132fe848260208601613297565b91505092915050565b600061331282612f8d565b9050919050565b61332281613307565b811461332d57600080fd5b50565b60008135905061333f81613319565b92915050565b6000819050919050565b61335881613345565b811461336357600080fd5b50565b6000813590506133758161334f565b92915050565b60008083601f84011261339157613390613027565b5b8235905067ffffffffffffffff8111156133ae576133ad61302c565b5b6020830191508360208202830111156133ca576133c9613031565b5b9250929050565b6133da81612f57565b81146133e557600080fd5b50565b6000813590506133f7816133d1565b92915050565b600061ffff82169050919050565b613414816133fd565b811461341f57600080fd5b50565b6000813590506134318161340b565b92915050565b6000806000806000806000806000806101208b8d03121561345b5761345a612ec8565b5b60008b013567ffffffffffffffff81111561347957613478612ecd565b5b6134858d828e016132d9565b9a505060206134968d828e01613330565b99505060406134a78d828e016130ad565b98505060606134b88d828e01613366565b97505060806134c98d828e01613330565b96505060a08b013567ffffffffffffffff8111156134ea576134e9612ecd565b5b6134f68d828e0161337b565b955095505060c06135098d828e016133e8565b93505060e061351a8d828e01613422565b92505061010061352c8d828e01613129565b9150509295989b9194979a5092959850565b61354781613345565b82525050565b6000602082019050613562600083018461353e565b92915050565b60006020828403121561357e5761357d612ec8565b5b600061358c84828501613366565b91505092915050565b600080604083850312156135ac576135ab612ec8565b5b60006135ba85828601613366565b92505060206135cb85828601613330565b9150509250929050565b60006135e082613307565b9050919050565b6135f0816135d5565b81146135fb57600080fd5b50565b60008135905061360d816135e7565b92915050565b600061361e82613307565b9050919050565b61362e81613613565b811461363957600080fd5b50565b60008135905061364b81613625565b92915050565b600061365c82613307565b9050919050565b61366c81613651565b811461367757600080fd5b50565b60008135905061368981613663565b92915050565b600061369a82613307565b9050919050565b6136aa8161368f565b81146136b557600080fd5b50565b6000813590506136c7816136a1565b92915050565b600080600080600080600060e0888a0312156136ec576136eb612ec8565b5b60006136fa8a828b016135fe565b975050602061370b8a828b0161363c565b965050604061371c8a828b016130ad565b955050606061372d8a828b016130ad565b945050608061373e8a828b0161367a565b93505060a061374f8a828b016136b8565b92505060c06137608a828b01613330565b91505092959891949750929550565b60008060008060008060008060008060006101208c8e03121561379557613794612ec8565b5b60008c013567ffffffffffffffff8111156137b3576137b2612ecd565b5b6137bf8e828f01613036565b9b509b505060206137d28e828f01613330565b99505060406137e38e828f016130ad565b98505060606137f48e828f01613366565b97505060806138058e828f01613330565b96505060a08c013567ffffffffffffffff81111561382657613825612ecd565b5b6138328e828f0161337b565b955095505060c06138458e828f016133e8565b93505060e06138568e828f01613422565b9250506101006138688e828f01613129565b9150509295989b509295989b9093969950565b60006020828403121561389157613890612ec8565b5b600061389f8482850161363c565b91505092915050565b6000806000606084860312156138c1576138c0612ec8565b5b60006138cf86828701613330565b93505060206138e086828701613330565b92505060406138f1868287016130ad565b9150509250925092565b60006020828403121561391157613910612ec8565b5b600061391f848285016130ad565b91505092915050565b60008060008060008060008060006101008a8c03121561394b5761394a612ec8565b5b60008a013567ffffffffffffffff81111561396957613968612ecd565b5b6139758c828d016132d9565b99505060206139868c828d01613330565b98505060406139978c828d016130ad565b97505060606139a88c828d01613366565b96505060806139b98c828d01613330565b95505060a08a013567ffffffffffffffff8111156139da576139d9612ecd565b5b6139e68c828d0161337b565b945094505060c06139f98c828d016133e8565b92505060e0613a0a8c828d01613422565b9150509295985092959850929598565b600060208284031215613a3057613a2f612ec8565b5b6000613a3e84828501613330565b91505092915050565b6000806000806000806000806000806101008b8d031215613a6b57613a6a612ec8565b5b60008b013567ffffffffffffffff811115613a8957613a88612ecd565b5b613a958d828e01613036565b9a509a50506020613aa88d828e01613330565b9850506040613ab98d828e016130ad565b9750506060613aca8d828e01613366565b9650506080613adb8d828e01613330565b95505060a08b013567ffffffffffffffff811115613afc57613afb612ecd565b5b613b088d828e0161337b565b945094505060c0613b1b8d828e016133e8565b92505060e0613b2c8d828e01613422565b9150509295989b9194979a5092959850565b6000613b4982612fd9565b9050919050565b613b5981613b3e565b82525050565b6000602082019050613b746000830184613b50565b92915050565b613b838161308c565b82525050565b6000602082019050613b9e6000830184613b7a565b92915050565b60008060408385031215613bbb57613bba612ec8565b5b600083013567ffffffffffffffff811115613bd957613bd8612ecd565b5b613be5858286016132d9565b9250506020613bf6858286016130ad565b9150509250929050565b613c098161308c565b82525050565b604082016000820151613c256000850182613c00565b506020820151613c386020850182613c00565b50505050565b6000604082019050613c536000830184613c0f565b92915050565b613c6281613307565b82525050565b6000602082019050613c7d6000830184613c59565b92915050565b600060208284031215613c9957613c98612ec8565b5b600082013567ffffffffffffffff811115613cb757613cb6612ecd565b5b613cc3848285016132d9565b91505092915050565b6000613cd782612fd9565b9050919050565b613ce781613ccc565b82525050565b6000602082019050613d026000830184613cde565b92915050565b600080600060408486031215613d2157613d20612ec8565b5b600084013567ffffffffffffffff811115613d3f57613d3e612ecd565b5b613d4b86828701613036565b93509350506020613d5e868287016130ad565b9150509250925092565b7f4e487b7100000000000000000000000000000000000000000000000000000000600052602160045260246000fd5b60078110613da857613da7613d68565b5b50565b6000819050613db982613d97565b919050565b6000613dc982613dab565b9050919050565b613dd981613dbe565b82525050565b6000602082019050613df46000830184613dd0565b92915050565b6000613e0582612fd9565b9050919050565b613e1581613dfa565b82525050565b6000602082019050613e306000830184613e0c565b92915050565b6000613e4182613307565b9050919050565b613e5181613e36565b8114613e5c57600080fd5b50565b600081359050613e6e81613e48565b92915050565b600060208284031215613e8a57613e89612ec8565b5b6000613e9884828501613e5f565b91505092915050565b60008060408385031215613eb857613eb7612ec8565b5b6000613ec6858286016130ad565b9250506020613ed7858286016130ad565b9150509250929050565b600081905092915050565b6000613ef88385613ee1565b9350613f05838584613288565b82840190509392505050565b6000613f1e828486613eec565b91508190509392505050565b6000604082019050613f3f6000830185613b7a565b613f4c6020830184613b7a565b9392505050565b600081519050613f6281613096565b92915050565b600060208284031215613f7e57613f7d612ec8565b5b6000613f8c84828501613f53565b91505092915050565b600082825260208201905092915050565b6000613fb28385613f95565b9350613fbf838584613288565b613fc8836131cb565b840190509392505050565b6000819050919050565b6000613ff8613ff3613fee84613fd3565b612fad565b61308c565b9050919050565b61400881613fdd565b82525050565b60006060820190508181036000830152614029818688613fa6565b90506140386020830185613fff565b6140456040830184613b7a565b95945050505050565b7f416363657373436f6e74726f6c3a2063616e206f6e6c792072656e6f756e636560008201527f20726f6c657320666f722073656c660000000000000000000000000000000000602082015250565b60006140aa602f83613f95565b91506140b58261404e565b604082019050919050565b600060208201905081810360008301526140d98161409d565b9050919050565b7f496e697469616c697a61626c653a20636f6e747261637420697320616c72656160008201527f647920696e697469616c697a6564000000000000000000000000000000000000602082015250565b600061413c602e83613f95565b9150614147826140e0565b604082019050919050565b6000602082019050818103600083015261416b8161412f565b9050919050565b6000819050919050565b600060ff82169050919050565b60006141a461419f61419a84614172565b612fad565b61417c565b9050919050565b6141b481614189565b82525050565b60006020820190506141cf60008301846141ab565b92915050565b60006040820190506141ea6000830185613c59565b6141f76020830184613b7a565b9392505050565b60008151905061420d816133d1565b92915050565b60006020828403121561422957614228612ec8565b5b6000614237848285016141fe565b91505092915050565b7f6d696e696d616c206c656e206973203200000000000000000000000000000000600082015250565b6000614276601083613f95565b915061428182614240565b602082019050919050565b600060208201905081810360008301526142a581614269565b9050919050565b7f5265736f6c76657252657175697265645768656e44617461537570706c696564600082015250565b60006142e2602083613f95565b91506142ed826142ac565b602082019050919050565b60006020820190508181036000830152614311816142d5565b9050919050565b7f4475726174696f6e546f6f53686f727400000000000000000000000000000000600082015250565b600061434e601083613f95565b915061435982614318565b602082019050919050565b6000602082019050818103600083015261437d81614341565b9050919050565b600082825260208201905092915050565b6000819050919050565b600082825260208201905092915050565b60006143bc838561439f565b93506143c9838584613288565b6143d2836131cb565b840190509392505050565b60006143ea8484846143b0565b90509392505050565b600080fd5b600080fd5b600080fd5b6000808335600160200384360303811261441f5761441e6143fd565b5b83810192508235915060208301925067ffffffffffffffff821115614447576144466143f3565b5b60018202360383131561445d5761445c6143f8565b5b509250929050565b6000602082019050919050565b600061447e8385614384565b93508360208402850161449084614395565b8060005b878110156144d65784840389526144ab8284614402565b6144b68682846143dd565b95506144c184614465565b935060208b019a505050600181019050614494565b50829750879450505050509392505050565b6144f1816133fd565b82525050565b60006101008201905061450d600083018c61353e565b61451a602083018b613c59565b614527604083018a613b7a565b614534606083018961353e565b6145416080830188613c59565b81810360a0830152614554818688614472565b905061456360c0830185612f63565b61457060e08301846144e8565b9a9950505050505050505050565b7f4e487b7100000000000000000000000000000000000000000000000000000000600052601160045260246000fd5b60006145b88261308c565b91506145c38361308c565b92508282019050808211156145db576145da61457e565b5b92915050565b7f496e73756666696369656e7456616c7565000000000000000000000000000000600082015250565b6000614617601183613f95565b9150614622826145e1565b602082019050919050565b600060208201905081810360008301526146468161460a565b9050919050565b60006146588261308c565b91506146638361308c565b925082820390508181111561467b5761467a61457e565b5b92915050565b600081519050919050565b60005b838110156146aa57808201518184015260208101905061468f565b60008484015250505050565b60006146c182614681565b6146cb8185613f95565b93506146db81856020860161468c565b6146e4816131cb565b840191505092915050565b6000606082019050818103600083015261470981866146b6565b90506147186020830185613b7a565b6147256040830184613b7a565b949350505050565b600080fd5b6000604082840312156147485761474761472d565b5b614752604061323c565b9050600061476284828501613f53565b600083015250602061477684828501613f53565b60208301525092915050565b60006040828403121561479857614797612ec8565b5b60006147a684828501614732565b91505092915050565b7f696e76616c69642071756f746100000000000000000000000000000000000000600082015250565b60006147e5600d83613f95565b91506147f0826147af565b602082019050919050565b60006020820190508181036000830152614814816147d8565b9050919050565b60006060820190508181036000830152614836818688613fa6565b90506148456020830185613b7a565b6148526040830184613b7a565b95945050505050565b6000602082019050818103600083015261487581846146b6565b905092915050565b7f556e65787069726564436f6d6d69746d656e7445786973747300000000000000600082015250565b60006148b3601983613f95565b91506148be8261487d565b602082019050919050565b600060208201905081810360008301526148e2816148a6565b9050919050565b7f4f776e61626c653a206e6577206f776e657220697320746865207a65726f206160008201527f6464726573730000000000000000000000000000000000000000000000000000602082015250565b6000614945602683613f95565b9150614950826148e9565b604082019050919050565b6000602082019050818103600083015261497481614938565b9050919050565b7f4f776e61626c653a2063616c6c6572206973206e6f7420746865206f776e6572600082015250565b60006149b1602083613f95565b91506149bc8261497b565b602082019050919050565b600060208201905081810360008301526149e0816149a4565b9050919050565b600060a0820190508181036000830152614a0281888a613fa6565b9050614a116020830187613c59565b614a1e6040830186613b7a565b614a2b6060830185613c59565b614a3860808301846144e8565b979650505050505050565b60006080820190508181036000830152614a5e818789613fa6565b9050614a6d6020830186613b7a565b614a7a6040830185613b7a565b614a876060830184613b7a565b9695505050505050565b7f4e487b7100000000000000000000000000000000000000000000000000000000600052603260045260246000fd5b6000614acb8261308c565b91507fffffffffffffffffffffffffffffffffffffffffffffffffffffffffffffffff8203614afd57614afc61457e565b5b600182019050919050565b600081905092915050565b7f416363657373436f6e74726f6c3a206163636f756e7420000000000000000000600082015250565b6000614b49601783614b08565b9150614b5482614b13565b601782019050919050565b6000614b6a82614681565b614b748185614b08565b9350614b8481856020860161468c565b80840191505092915050565b7f206973206d697373696e6720726f6c6520000000000000000000000000000000600082015250565b6000614bc6601183614b08565b9150614bd182614b90565b601182019050919050565b6000614be782614b3c565b9150614bf38285614b5f565b9150614bfe82614bb9565b9150614c0a8284614b5f565b91508190509392505050565b7f436f6d6d69746d656e74546f6f4e657700000000000000000000000000000000600082015250565b6000614c4c601083613f95565b9150614c5782614c16565b602082019050919050565b60006020820190508181036000830152614c7b81614c3f565b9050919050565b7f436f6d6d69746d656e74546f6f4f6c6400000000000000000000000000000000600082015250565b6000614cb8601083613f95565b9150614cc382614c82565b602082019050919050565b60006020820190508181036000830152614ce781614cab565b9050919050565b7f4e616d654e6f74417661696c61626c6500000000000000000000000000000000600082015250565b6000614d24601083613f95565b9150614d2f82614cee565b602082019050919050565b60006020820190508181036000830152614d5381614d17565b9050919050565b6000819050919050565b614d75614d7082613345565b614d5a565b82525050565b6000614d878285614d64565b602082019150614d978284614d64565b6020820191508190509392505050565b6000604082019050614dbc600083018661353e565b8181036020830152614dcf818486614472565b9050949350505050565b600067ffffffffffffffff821115614df457614df36131dc565b5b602082029050602081019050919050565b600067ffffffffffffffff821115614e2057614e1f6131dc565b5b614e29826131cb565b9050602081019050919050565b6000614e49614e4484614e05565b61323c565b905082815260208101848484011115614e6557614e646131c6565b5b614e7084828561468c565b509392505050565b600082601f830112614e8d57614e8c613027565b5b8151614e9d848260208601614e36565b91505092915050565b6000614eb9614eb484614dd9565b61323c565b90508083825260208201905060208402830185811115614edc57614edb613031565b5b835b81811015614f2357805167ffffffffffffffff811115614f0157614f00613027565b5b808601614f0e8982614e78565b85526020850194505050602081019050614ede565b5050509392505050565b600082601f830112614f4257614f41613027565b5b8151614f52848260208601614ea6565b91505092915050565b600060208284031215614f7157614f70612ec8565b5b600082015167ffffffffffffffff811115614f8f57614f8e612ecd565b5b614f9b84828501614f2d565b91505092915050565b7f2e77656233000000000000000000000000000000000000000000000000000000815250565b6000614fd68284614b5f565b9150614fe182614fa4565b60058201915081905092915050565b60006080820190506150056000830187613c59565b6150126020830186613c59565b61501f6040830185613c59565b818103606083015261503181846146b6565b905095945050505050565b60008151905061504b8161334f565b92915050565b60006020828403121561506757615066612ec8565b5b60006150758482850161503c565b91505092915050565b60006150898261308c565b91506150948361308c565b92508282026150a28161308c565b915082820484148315176150b9576150b861457e565b5b5092915050565b60006150cb8261308c565b9150600082036150de576150dd61457e565b5b600182039050919050565b7f537472696e67733a20686578206c656e67746820696e73756666696369656e74600082015250565b600061511f602083613f95565b915061512a826150e9565b602082019050919050565b6000602082019050818103600083015261514e81615112565b905091905056fea26469706673582212209a26bd97661bec25235125925fb05384bfcd1daa5d1d0b643532e99a1462282664736f6c63430008110033",
    "linkReferences": {},
    "deployedLinkReferences": {}
}